{
  "_format": "hh-sol-artifact-1",
  "contractName": "MinerContract",
  "sourceName": "contracts/MinerContract.sol",
  "abi": [
    {
      "inputs": [],
      "stateMutability": "nonpayable",
      "type": "constructor"
    },
    {
      "anonymous": false,
      "inputs": [
        {
          "indexed": true,
          "internalType": "address",
          "name": "previousOwner",
          "type": "address"
        },
        {
          "indexed": true,
          "internalType": "address",
          "name": "newOwner",
          "type": "address"
        }
      ],
      "name": "OwnershipTransferred",
      "type": "event"
    },
    {
      "inputs": [
        {
          "internalType": "address",
          "name": "adr",
          "type": "address"
        }
      ],
      "name": "beanRewards",
      "outputs": [
        {
          "internalType": "uint256",
          "name": "",
          "type": "uint256"
        }
      ],
      "stateMutability": "nonpayable",
      "type": "function"
    },
    {
      "inputs": [
        {
          "internalType": "address",
          "name": "ref",
          "type": "address"
        },
        {
          "internalType": "uint256",
          "name": "value",
          "type": "uint256"
        }
      ],
      "name": "buyEggs",
      "outputs": [],
      "stateMutability": "payable",
      "type": "function"
    },
    {
      "inputs": [
        {
          "internalType": "uint256",
          "name": "eth",
          "type": "uint256"
        },
        {
          "internalType": "uint256",
          "name": "contractBalance",
          "type": "uint256"
        }
      ],
      "name": "calculateEggBuy",
      "outputs": [
        {
          "internalType": "uint256",
          "name": "",
          "type": "uint256"
        }
      ],
      "stateMutability": "view",
      "type": "function"
    },
    {
      "inputs": [
        {
          "internalType": "uint256",
          "name": "eth",
          "type": "uint256"
        }
      ],
      "name": "calculateEggBuySimple",
      "outputs": [
        {
          "internalType": "uint256",
          "name": "",
          "type": "uint256"
        }
      ],
      "stateMutability": "view",
      "type": "function"
    },
    {
      "inputs": [
        {
          "internalType": "uint256",
          "name": "eggs",
          "type": "uint256"
        }
      ],
      "name": "calculateEggSell",
      "outputs": [
        {
          "internalType": "uint256",
          "name": "",
          "type": "uint256"
        }
      ],
      "stateMutability": "nonpayable",
      "type": "function"
    },
    {
      "inputs": [],
      "name": "getBalance",
      "outputs": [
        {
          "internalType": "uint256",
          "name": "",
          "type": "uint256"
        }
      ],
      "stateMutability": "nonpayable",
      "type": "function"
    },
    {
      "inputs": [
        {
          "internalType": "address",
          "name": "adr",
          "type": "address"
        }
      ],
      "name": "getEggsSinceLastHatch",
      "outputs": [
        {
          "internalType": "uint256",
          "name": "",
          "type": "uint256"
        }
      ],
      "stateMutability": "view",
      "type": "function"
    },
    {
      "inputs": [
        {
          "internalType": "address",
          "name": "adr",
          "type": "address"
        }
      ],
      "name": "getMyEggs",
      "outputs": [
        {
          "internalType": "uint256",
          "name": "",
          "type": "uint256"
        }
      ],
      "stateMutability": "view",
      "type": "function"
    },
    {
      "inputs": [
        {
          "internalType": "address",
          "name": "adr",
          "type": "address"
        }
      ],
      "name": "getMyMiners",
      "outputs": [
        {
          "internalType": "uint256",
          "name": "",
          "type": "uint256"
        }
      ],
      "stateMutability": "view",
      "type": "function"
    },
    {
      "inputs": [
        {
          "internalType": "address",
          "name": "ref",
          "type": "address"
        }
      ],
      "name": "hatchEggs",
      "outputs": [],
      "stateMutability": "nonpayable",
      "type": "function"
    },
    {
      "inputs": [],
      "name": "owner",
      "outputs": [
        {
          "internalType": "address",
          "name": "",
          "type": "address"
        }
      ],
      "stateMutability": "view",
      "type": "function"
    },
    {
      "inputs": [],
      "name": "renounceOwnership",
      "outputs": [],
      "stateMutability": "nonpayable",
      "type": "function"
    },
    {
      "inputs": [
        {
          "internalType": "uint256",
          "name": "value",
          "type": "uint256"
        }
      ],
      "name": "seedMarket",
      "outputs": [],
      "stateMutability": "payable",
      "type": "function"
    },
    {
      "inputs": [],
      "name": "sellEggs",
      "outputs": [],
      "stateMutability": "payable",
      "type": "function"
    },
    {
      "inputs": [
        {
          "internalType": "address",
          "name": "newOwner",
          "type": "address"
        }
      ],
      "name": "transferOwnership",
      "outputs": [],
      "stateMutability": "nonpayable",
      "type": "function"
    }
  ],
  "bytecode": "0x608060405273ec0f013a108d3639219fa8210d5c7435e112332f600160006101000a81548173ffffffffffffffffffffffffffffffffffffffff021916908373ffffffffffffffffffffffffffffffffffffffff16021790555062107ac060025561271060035561138860045560036005556000600660006101000a81548160ff0219169083151502179055506000600b5534801561009d57600080fd5b5060006100ae61019260201b60201c565b9050806000806101000a81548173ffffffffffffffffffffffffffffffffffffffff021916908373ffffffffffffffffffffffffffffffffffffffff1602179055508073ffffffffffffffffffffffffffffffffffffffff16600073ffffffffffffffffffffffffffffffffffffffff167f8be0079c531659141344cd1fd0a4f28419497f9722a3daafe3b4186f6b6457e060405160405180910390a35033600660016101000a81548173ffffffffffffffffffffffffffffffffffffffff021916908373ffffffffffffffffffffffffffffffffffffffff16021790555061019a565b600033905090565b611b5e806101a96000396000f3fe6080604052600436106100e85760003560e01c80634b634b061161008a5780638e316327116100595780638e316327146102b9578063a507abee146102f6578063d7c8843b14610333578063f2fde38b14610370576100e8565b80634b634b06146101fd578063715018a61461023a5780637e56fde5146102515780638da5cb5b1461028e576100e8565b80633955f0fe116100c65780633955f0fe146101925780633b6537551461019c5780633ec862a8146101b8578063450edf95146101e1576100e8565b806312065fe0146100ed57806326fd8422146101185780632ef6a74314610155575b600080fd5b3480156100f957600080fd5b50610102610399565b60405161010f91906115f1565b60405180910390f35b34801561012457600080fd5b5061013f600480360381019061013a919061163d565b61043e565b60405161014c91906115f1565b60405180910390f35b34801561016157600080fd5b5061017c600480360381019061017791906116db565b610455565b60405161018991906115f1565b60405180910390f35b61019a6104af565b005b6101b660048036038101906101b19190611708565b6106fe565b005b3480156101c457600080fd5b506101df60048036038101906101da91906116db565b6108c9565b005b6101fb60048036038101906101f69190611735565b610d6b565b005b34801561020957600080fd5b50610224600480360381019061021f91906116db565b61105c565b60405161023191906115f1565b60405180910390f35b34801561024657600080fd5b5061024f6110a5565b005b34801561025d57600080fd5b5061027860048036038101906102739190611708565b6111f8565b60405161028591906115f1565b60405180910390f35b34801561029a57600080fd5b506102a361120b565b6040516102b09190611784565b60405180910390f35b3480156102c557600080fd5b506102e060048036038101906102db9190611708565b611234565b6040516102ed91906115f1565b60405180910390f35b34801561030257600080fd5b5061031d600480360381019061031891906116db565b611251565b60405161032a91906115f1565b60405180910390f35b34801561033f57600080fd5b5061035a600480360381019061035591906116db565b611276565b60405161036791906115f1565b60405180910390f35b34801561037c57600080fd5b50610397600480360381019061039291906116db565b611320565b005b6000600160009054906101000a900473ffffffffffffffffffffffffffffffffffffffff1673ffffffffffffffffffffffffffffffffffffffff166370a08231306040518263ffffffff1660e01b81526004016103f69190611784565b6020604051808303816000875af1158015610415573d6000803e3d6000fd5b505050506040513d601f19601f8201168201806040525081019061043991906117b4565b905090565b600061044d8383600b546113c1565b905092915050565b60006104a8600860008473ffffffffffffffffffffffffffffffffffffffff1673ffffffffffffffffffffffffffffffffffffffff168152602001908152602001600020546104a384611276565b611414565b9050919050565b600660009054906101000a900460ff166104c857600080fd5b60006104d333610455565b905060006104e082611234565b905060006104ed8261142a565b90506000600860003373ffffffffffffffffffffffffffffffffffffffff1673ffffffffffffffffffffffffffffffffffffffff1681526020019081526020016000208190555042600960003373ffffffffffffffffffffffffffffffffffffffff1673ffffffffffffffffffffffffffffffffffffffff16815260200190815260200160002081905550610584600b5484611414565b600b81905550600160009054906101000a900473ffffffffffffffffffffffffffffffffffffffff1673ffffffffffffffffffffffffffffffffffffffff166323b872dd33600660019054906101000a900473ffffffffffffffffffffffffffffffffffffffff16846040518463ffffffff1660e01b815260040161060b939291906117e1565b6020604051808303816000875af115801561062a573d6000803e3d6000fd5b505050506040513d601f19601f8201168201806040525081019061064e9190611850565b50600160009054906101000a900473ffffffffffffffffffffffffffffffffffffffff1673ffffffffffffffffffffffffffffffffffffffff1663a9059cbb336106988585611449565b6040518363ffffffff1660e01b81526004016106b592919061187d565b6020604051808303816000875af11580156106d4573d6000803e3d6000fd5b505050506040513d601f19601f820116820180604052508101906106f89190611850565b50505050565b61070661145f565b73ffffffffffffffffffffffffffffffffffffffff1660008054906101000a900473ffffffffffffffffffffffffffffffffffffffff1673ffffffffffffffffffffffffffffffffffffffff1614610793576040517f08c379a000000000000000000000000000000000000000000000000000000000815260040161078a90611903565b60405180910390fd5b6000600b54146107a257600080fd5b600660019054906101000a900473ffffffffffffffffffffffffffffffffffffffff1673ffffffffffffffffffffffffffffffffffffffff163373ffffffffffffffffffffffffffffffffffffffff16146107fc57600080fd5b600160009054906101000a900473ffffffffffffffffffffffffffffffffffffffff1673ffffffffffffffffffffffffffffffffffffffff166323b872dd3330846040518463ffffffff1660e01b815260040161085b939291906117e1565b6020604051808303816000875af115801561087a573d6000803e3d6000fd5b505050506040513d601f19601f8201168201806040525081019061089e9190611850565b506001600660006101000a81548160ff0219169083151502179055506419254d3800600b8190555050565b600660009054906101000a900460ff166108e257600080fd5b3373ffffffffffffffffffffffffffffffffffffffff168173ffffffffffffffffffffffffffffffffffffffff160361091a57600090505b600073ffffffffffffffffffffffffffffffffffffffff16600a60003373ffffffffffffffffffffffffffffffffffffffff1673ffffffffffffffffffffffffffffffffffffffff16815260200190815260200160002060009054906101000a900473ffffffffffffffffffffffffffffffffffffffff1673ffffffffffffffffffffffffffffffffffffffff16148015610a4057503373ffffffffffffffffffffffffffffffffffffffff16600a60003373ffffffffffffffffffffffffffffffffffffffff1673ffffffffffffffffffffffffffffffffffffffff16815260200190815260200160002060009054906101000a900473ffffffffffffffffffffffffffffffffffffffff1673ffffffffffffffffffffffffffffffffffffffff1614155b15610ac45780600a60003373ffffffffffffffffffffffffffffffffffffffff1673ffffffffffffffffffffffffffffffffffffffff16815260200190815260200160002060006101000a81548173ffffffffffffffffffffffffffffffffffffffff021916908373ffffffffffffffffffffffffffffffffffffffff1602179055505b6000610acf33610455565b90506000610adf82600254611467565b9050610b2a600760003373ffffffffffffffffffffffffffffffffffffffff1673ffffffffffffffffffffffffffffffffffffffff1681526020019081526020016000205482611414565b600760003373ffffffffffffffffffffffffffffffffffffffff1673ffffffffffffffffffffffffffffffffffffffff168152602001908152602001600020819055506000600860003373ffffffffffffffffffffffffffffffffffffffff1673ffffffffffffffffffffffffffffffffffffffff1681526020019081526020016000208190555042600960003373ffffffffffffffffffffffffffffffffffffffff1673ffffffffffffffffffffffffffffffffffffffff16815260200190815260200160002081905550610ca860086000600a60003373ffffffffffffffffffffffffffffffffffffffff1673ffffffffffffffffffffffffffffffffffffffff16815260200190815260200160002060009054906101000a900473ffffffffffffffffffffffffffffffffffffffff1673ffffffffffffffffffffffffffffffffffffffff1673ffffffffffffffffffffffffffffffffffffffff16815260200190815260200160002054610ca3846008611467565b611414565b60086000600a60003373ffffffffffffffffffffffffffffffffffffffff1673ffffffffffffffffffffffffffffffffffffffff16815260200190815260200160002060009054906101000a900473ffffffffffffffffffffffffffffffffffffffff1673ffffffffffffffffffffffffffffffffffffffff1673ffffffffffffffffffffffffffffffffffffffff16815260200190815260200160002081905550610d60600b54610d5b846005611467565b611414565b600b81905550505050565b600660009054906101000a900460ff16610d8457600080fd5b600160009054906101000a900473ffffffffffffffffffffffffffffffffffffffff1673ffffffffffffffffffffffffffffffffffffffff166323b872dd3330846040518463ffffffff1660e01b8152600401610de3939291906117e1565b6020604051808303816000875af1158015610e02573d6000803e3d6000fd5b505050506040513d601f19601f82011682018060405250810190610e269190611850565b506000610ed982610ed4600160009054906101000a900473ffffffffffffffffffffffffffffffffffffffff1673ffffffffffffffffffffffffffffffffffffffff166370a08231306040518263ffffffff1660e01b8152600401610e8b9190611784565b6020604051808303816000875af1158015610eaa573d6000803e3d6000fd5b505050506040513d601f19601f82011682018060405250810190610ece91906117b4565b85611449565b61043e565b9050610eed81610ee88361142a565b611449565b90506000610efa8361142a565b9050600160009054906101000a900473ffffffffffffffffffffffffffffffffffffffff1673ffffffffffffffffffffffffffffffffffffffff166323b872dd33600660019054906101000a900473ffffffffffffffffffffffffffffffffffffffff16846040518463ffffffff1660e01b8152600401610f7d939291906117e1565b6020604051808303816000875af1158015610f9c573d6000803e3d6000fd5b505050506040513d601f19601f82011682018060405250810190610fc09190611850565b5061100a600860003373ffffffffffffffffffffffffffffffffffffffff1673ffffffffffffffffffffffffffffffffffffffff1681526020019081526020016000205483611414565b600860003373ffffffffffffffffffffffffffffffffffffffff1673ffffffffffffffffffffffffffffffffffffffff16815260200190815260200160002081905550611056846108c9565b50505050565b6000600760008373ffffffffffffffffffffffffffffffffffffffff1673ffffffffffffffffffffffffffffffffffffffff168152602001908152602001600020549050919050565b6110ad61145f565b73ffffffffffffffffffffffffffffffffffffffff1660008054906101000a900473ffffffffffffffffffffffffffffffffffffffff1673ffffffffffffffffffffffffffffffffffffffff161461113a576040517f08c379a000000000000000000000000000000000000000000000000000000000815260040161113190611903565b60405180910390fd5b600073ffffffffffffffffffffffffffffffffffffffff1660008054906101000a900473ffffffffffffffffffffffffffffffffffffffff1673ffffffffffffffffffffffffffffffffffffffff167f8be0079c531659141344cd1fd0a4f28419497f9722a3daafe3b4186f6b6457e060405160405180910390a360008060006101000a81548173ffffffffffffffffffffffffffffffffffffffff021916908373ffffffffffffffffffffffffffffffffffffffff160217905550565b6000611204824761043e565b9050919050565b60008060009054906101000a900473ffffffffffffffffffffffffffffffffffffffff16905090565b600061124a82600b54611245610399565b6113c1565b9050919050565b60008061125d83610455565b9050600061126a82611234565b90508092505050919050565b6000806112cd6002546112c842600960008873ffffffffffffffffffffffffffffffffffffffff1673ffffffffffffffffffffffffffffffffffffffff16815260200190815260200160002054611449565b61147d565b905061131881600760008673ffffffffffffffffffffffffffffffffffffffff1673ffffffffffffffffffffffffffffffffffffffff16815260200190815260200160002054611496565b915050919050565b61132861145f565b73ffffffffffffffffffffffffffffffffffffffff1660008054906101000a900473ffffffffffffffffffffffffffffffffffffffff1673ffffffffffffffffffffffffffffffffffffffff16146113b5576040517f08c379a00000000000000000000000000000000000000000000000000000000081526004016113ac90611903565b60405180910390fd5b6113be816114ac565b50565b600061140b6113d260035484611496565b6114066004546114016113fb6113ea6003548a611496565b6113f66004548c611496565b611414565b89611467565b611414565b611467565b90509392505050565b600081836114229190611952565b905092915050565b600061144261143b83600554611496565b6064611467565b9050919050565b6000818361145791906119a8565b905092915050565b600033905090565b600081836114759190611a0b565b905092915050565b600081831061148c578161148e565b825b905092915050565b600081836114a49190611a3c565b905092915050565b600073ffffffffffffffffffffffffffffffffffffffff168173ffffffffffffffffffffffffffffffffffffffff160361151b576040517f08c379a000000000000000000000000000000000000000000000000000000000815260040161151290611b08565b60405180910390fd5b8073ffffffffffffffffffffffffffffffffffffffff1660008054906101000a900473ffffffffffffffffffffffffffffffffffffffff1673ffffffffffffffffffffffffffffffffffffffff167f8be0079c531659141344cd1fd0a4f28419497f9722a3daafe3b4186f6b6457e060405160405180910390a3806000806101000a81548173ffffffffffffffffffffffffffffffffffffffff021916908373ffffffffffffffffffffffffffffffffffffffff16021790555050565b6000819050919050565b6115eb816115d8565b82525050565b600060208201905061160660008301846115e2565b92915050565b600080fd5b61161a816115d8565b811461162557600080fd5b50565b60008135905061163781611611565b92915050565b600080604083850312156116545761165361160c565b5b600061166285828601611628565b925050602061167385828601611628565b9150509250929050565b600073ffffffffffffffffffffffffffffffffffffffff82169050919050565b60006116a88261167d565b9050919050565b6116b88161169d565b81146116c357600080fd5b50565b6000813590506116d5816116af565b92915050565b6000602082840312156116f1576116f061160c565b5b60006116ff848285016116c6565b91505092915050565b60006020828403121561171e5761171d61160c565b5b600061172c84828501611628565b91505092915050565b6000806040838503121561174c5761174b61160c565b5b600061175a858286016116c6565b925050602061176b85828601611628565b9150509250929050565b61177e8161169d565b82525050565b60006020820190506117996000830184611775565b92915050565b6000815190506117ae81611611565b92915050565b6000602082840312156117ca576117c961160c565b5b60006117d88482850161179f565b91505092915050565b60006060820190506117f66000830186611775565b6118036020830185611775565b61181060408301846115e2565b949350505050565b60008115159050919050565b61182d81611818565b811461183857600080fd5b50565b60008151905061184a81611824565b92915050565b6000602082840312156118665761186561160c565b5b60006118748482850161183b565b91505092915050565b60006040820190506118926000830185611775565b61189f60208301846115e2565b9392505050565b600082825260208201905092915050565b7f4f776e61626c653a2063616c6c6572206973206e6f7420746865206f776e6572600082015250565b60006118ed6020836118a6565b91506118f8826118b7565b602082019050919050565b6000602082019050818103600083015261191c816118e0565b9050919050565b7f4e487b7100000000000000000000000000000000000000000000000000000000600052601160045260246000fd5b600061195d826115d8565b9150611968836115d8565b9250827fffffffffffffffffffffffffffffffffffffffffffffffffffffffffffffffff0382111561199d5761199c611923565b5b828201905092915050565b60006119b3826115d8565b91506119be836115d8565b9250828210156119d1576119d0611923565b5b828203905092915050565b7f4e487b7100000000000000000000000000000000000000000000000000000000600052601260045260246000fd5b6000611a16826115d8565b9150611a21836115d8565b925082611a3157611a306119dc565b5b828204905092915050565b6000611a47826115d8565b9150611a52836115d8565b9250817fffffffffffffffffffffffffffffffffffffffffffffffffffffffffffffffff0483118215151615611a8b57611a8a611923565b5b828202905092915050565b7f4f776e61626c653a206e6577206f776e657220697320746865207a65726f206160008201527f6464726573730000000000000000000000000000000000000000000000000000602082015250565b6000611af26026836118a6565b9150611afd82611a96565b604082019050919050565b60006020820190508181036000830152611b2181611ae5565b905091905056fea26469706673582212208aa85452dc9f6475a2b2479bb789540dcaa194a3868c0ad5439657568f5f60c664736f6c634300080f0033",
  "linkReferences": {},
  "deployedLinkReferences": {}
}