{
  "_format": "hh-sol-artifact-1",
  "contractName": "MinerContract",
  "sourceName": "contracts/MinerContract.sol",
  "abi": [
    {
      "inputs": [],
      "stateMutability": "nonpayable",
      "type": "constructor"
    },
    {
      "anonymous": false,
      "inputs": [
        {
          "indexed": true,
          "internalType": "address",
          "name": "previousOwner",
          "type": "address"
        },
        {
          "indexed": true,
          "internalType": "address",
          "name": "newOwner",
          "type": "address"
        }
      ],
      "name": "OwnershipTransferred",
      "type": "event"
    },
    {
      "inputs": [
        {
          "internalType": "address",
          "name": "adr",
          "type": "address"
        }
      ],
      "name": "beanRewards",
      "outputs": [
        {
          "internalType": "uint256",
          "name": "",
          "type": "uint256"
        }
      ],
      "stateMutability": "view",
      "type": "function"
    },
    {
      "inputs": [
        {
          "internalType": "address",
          "name": "ref",
          "type": "address"
        },
        {
          "internalType": "uint256",
          "name": "value",
          "type": "uint256"
        }
      ],
      "name": "buyEggs",
      "outputs": [],
      "stateMutability": "payable",
      "type": "function"
    },
    {
      "inputs": [
        {
          "internalType": "uint256",
          "name": "eth",
          "type": "uint256"
        },
        {
          "internalType": "uint256",
          "name": "contractBalance",
          "type": "uint256"
        }
      ],
      "name": "calculateEggBuy",
      "outputs": [
        {
          "internalType": "uint256",
          "name": "",
          "type": "uint256"
        }
      ],
      "stateMutability": "view",
      "type": "function"
    },
    {
      "inputs": [
        {
          "internalType": "uint256",
          "name": "eth",
          "type": "uint256"
        }
      ],
      "name": "calculateEggBuySimple",
      "outputs": [
        {
          "internalType": "uint256",
          "name": "",
          "type": "uint256"
        }
      ],
      "stateMutability": "view",
      "type": "function"
    },
    {
      "inputs": [
        {
          "internalType": "uint256",
          "name": "eggs",
          "type": "uint256"
        }
      ],
      "name": "calculateEggSell",
      "outputs": [
        {
          "internalType": "uint256",
          "name": "",
          "type": "uint256"
        }
      ],
      "stateMutability": "view",
      "type": "function"
    },
    {
      "inputs": [],
      "name": "getBalance",
      "outputs": [
        {
          "internalType": "uint256",
          "name": "",
          "type": "uint256"
        }
      ],
      "stateMutability": "view",
      "type": "function"
    },
    {
      "inputs": [
        {
          "internalType": "address",
          "name": "adr",
          "type": "address"
        }
      ],
      "name": "getEggsSinceLastHatch",
      "outputs": [
        {
          "internalType": "uint256",
          "name": "",
          "type": "uint256"
        }
      ],
      "stateMutability": "view",
      "type": "function"
    },
    {
      "inputs": [
        {
          "internalType": "address",
          "name": "adr",
          "type": "address"
        }
      ],
      "name": "getMyEggs",
      "outputs": [
        {
          "internalType": "uint256",
          "name": "",
          "type": "uint256"
        }
      ],
      "stateMutability": "view",
      "type": "function"
    },
    {
      "inputs": [
        {
          "internalType": "address",
          "name": "adr",
          "type": "address"
        }
      ],
      "name": "getMyMiners",
      "outputs": [
        {
          "internalType": "uint256",
          "name": "",
          "type": "uint256"
        }
      ],
      "stateMutability": "view",
      "type": "function"
    },
    {
      "inputs": [
        {
          "internalType": "address",
          "name": "ref",
          "type": "address"
        }
      ],
      "name": "hatchEggs",
      "outputs": [],
      "stateMutability": "nonpayable",
      "type": "function"
    },
    {
      "inputs": [],
      "name": "owner",
      "outputs": [
        {
          "internalType": "address",
          "name": "",
          "type": "address"
        }
      ],
      "stateMutability": "view",
      "type": "function"
    },
    {
      "inputs": [],
      "name": "renounceOwnership",
      "outputs": [],
      "stateMutability": "nonpayable",
      "type": "function"
    },
    {
      "inputs": [
        {
          "internalType": "uint256",
          "name": "value",
          "type": "uint256"
        }
      ],
      "name": "seedMarket",
      "outputs": [],
      "stateMutability": "payable",
      "type": "function"
    },
    {
      "inputs": [],
      "name": "sellEggs",
      "outputs": [],
      "stateMutability": "payable",
      "type": "function"
    },
    {
      "inputs": [
        {
          "internalType": "address",
          "name": "newOwner",
          "type": "address"
        }
      ],
      "name": "transferOwnership",
      "outputs": [],
      "stateMutability": "nonpayable",
      "type": "function"
    }
  ],
  "bytecode": "0x608060405273299051d2fb9ef61e7b387d56cef3889bda6fc9d6600160006101000a81548173ffffffffffffffffffffffffffffffffffffffff021916908373ffffffffffffffffffffffffffffffffffffffff16021790555062107ac060025561271060035561138860045560046005556000600660006101000a81548160ff0219169083151502179055506000600b5534801561009d57600080fd5b5060006100ae61019260201b60201c565b9050806000806101000a81548173ffffffffffffffffffffffffffffffffffffffff021916908373ffffffffffffffffffffffffffffffffffffffff1602179055508073ffffffffffffffffffffffffffffffffffffffff16600073ffffffffffffffffffffffffffffffffffffffff167f8be0079c531659141344cd1fd0a4f28419497f9722a3daafe3b4186f6b6457e060405160405180910390a35033600660016101000a81548173ffffffffffffffffffffffffffffffffffffffff021916908373ffffffffffffffffffffffffffffffffffffffff16021790555061019a565b600033905090565b611b5a806101a96000396000f3fe6080604052600436106100e85760003560e01c80634b634b061161008a5780638e316327116100595780638e316327146102b9578063a507abee146102f6578063d7c8843b14610333578063f2fde38b14610370576100e8565b80634b634b06146101fd578063715018a61461023a5780637e56fde5146102515780638da5cb5b1461028e576100e8565b80633955f0fe116100c65780633955f0fe146101925780633b6537551461019c5780633ec862a8146101b8578063450edf95146101e1576100e8565b806312065fe0146100ed57806326fd8422146101185780632ef6a74314610155575b600080fd5b3480156100f957600080fd5b50610102610399565b60405161010f91906115ed565b60405180910390f35b34801561012457600080fd5b5061013f600480360381019061013a9190611639565b61043c565b60405161014c91906115ed565b60405180910390f35b34801561016157600080fd5b5061017c600480360381019061017791906116d7565b610453565b60405161018991906115ed565b60405180910390f35b61019a6104ad565b005b6101b660048036038101906101b19190611704565b6106fc565b005b3480156101c457600080fd5b506101df60048036038101906101da91906116d7565b6108c7565b005b6101fb60048036038101906101f69190611731565b610d69565b005b34801561020957600080fd5b50610224600480360381019061021f91906116d7565b611058565b60405161023191906115ed565b60405180910390f35b34801561024657600080fd5b5061024f6110a1565b005b34801561025d57600080fd5b5061027860048036038101906102739190611704565b6111f4565b60405161028591906115ed565b60405180910390f35b34801561029a57600080fd5b506102a3611207565b6040516102b09190611780565b60405180910390f35b3480156102c557600080fd5b506102e060048036038101906102db9190611704565b611230565b6040516102ed91906115ed565b60405180910390f35b34801561030257600080fd5b5061031d600480360381019061031891906116d7565b61124d565b60405161032a91906115ed565b60405180910390f35b34801561033f57600080fd5b5061035a600480360381019061035591906116d7565b611272565b60405161036791906115ed565b60405180910390f35b34801561037c57600080fd5b50610397600480360381019061039291906116d7565b61131c565b005b6000600160009054906101000a900473ffffffffffffffffffffffffffffffffffffffff1673ffffffffffffffffffffffffffffffffffffffff166370a08231306040518263ffffffff1660e01b81526004016103f69190611780565b602060405180830381865afa158015610413573d6000803e3d6000fd5b505050506040513d601f19601f8201168201806040525081019061043791906117b0565b905090565b600061044b8383600b546113bd565b905092915050565b60006104a6600860008473ffffffffffffffffffffffffffffffffffffffff1673ffffffffffffffffffffffffffffffffffffffff168152602001908152602001600020546104a184611272565b611410565b9050919050565b600660009054906101000a900460ff166104c657600080fd5b60006104d133610453565b905060006104de82611230565b905060006104eb82611426565b90506000600860003373ffffffffffffffffffffffffffffffffffffffff1673ffffffffffffffffffffffffffffffffffffffff1681526020019081526020016000208190555042600960003373ffffffffffffffffffffffffffffffffffffffff1673ffffffffffffffffffffffffffffffffffffffff16815260200190815260200160002081905550610582600b5484611410565b600b81905550600160009054906101000a900473ffffffffffffffffffffffffffffffffffffffff1673ffffffffffffffffffffffffffffffffffffffff166323b872dd33600660019054906101000a900473ffffffffffffffffffffffffffffffffffffffff16846040518463ffffffff1660e01b8152600401610609939291906117dd565b6020604051808303816000875af1158015610628573d6000803e3d6000fd5b505050506040513d601f19601f8201168201806040525081019061064c919061184c565b50600160009054906101000a900473ffffffffffffffffffffffffffffffffffffffff1673ffffffffffffffffffffffffffffffffffffffff1663a9059cbb336106968585611445565b6040518363ffffffff1660e01b81526004016106b3929190611879565b6020604051808303816000875af11580156106d2573d6000803e3d6000fd5b505050506040513d601f19601f820116820180604052508101906106f6919061184c565b50505050565b61070461145b565b73ffffffffffffffffffffffffffffffffffffffff1660008054906101000a900473ffffffffffffffffffffffffffffffffffffffff1673ffffffffffffffffffffffffffffffffffffffff1614610791576040517f08c379a0000000000000000000000000000000000000000000000000000000008152600401610788906118ff565b60405180910390fd5b6000600b54146107a057600080fd5b600660019054906101000a900473ffffffffffffffffffffffffffffffffffffffff1673ffffffffffffffffffffffffffffffffffffffff163373ffffffffffffffffffffffffffffffffffffffff16146107fa57600080fd5b600160009054906101000a900473ffffffffffffffffffffffffffffffffffffffff1673ffffffffffffffffffffffffffffffffffffffff166323b872dd3330846040518463ffffffff1660e01b8152600401610859939291906117dd565b6020604051808303816000875af1158015610878573d6000803e3d6000fd5b505050506040513d601f19601f8201168201806040525081019061089c919061184c565b506001600660006101000a81548160ff0219169083151502179055506419254d3800600b8190555050565b600660009054906101000a900460ff166108e057600080fd5b3373ffffffffffffffffffffffffffffffffffffffff168173ffffffffffffffffffffffffffffffffffffffff160361091857600090505b600073ffffffffffffffffffffffffffffffffffffffff16600a60003373ffffffffffffffffffffffffffffffffffffffff1673ffffffffffffffffffffffffffffffffffffffff16815260200190815260200160002060009054906101000a900473ffffffffffffffffffffffffffffffffffffffff1673ffffffffffffffffffffffffffffffffffffffff16148015610a3e57503373ffffffffffffffffffffffffffffffffffffffff16600a60003373ffffffffffffffffffffffffffffffffffffffff1673ffffffffffffffffffffffffffffffffffffffff16815260200190815260200160002060009054906101000a900473ffffffffffffffffffffffffffffffffffffffff1673ffffffffffffffffffffffffffffffffffffffff1614155b15610ac25780600a60003373ffffffffffffffffffffffffffffffffffffffff1673ffffffffffffffffffffffffffffffffffffffff16815260200190815260200160002060006101000a81548173ffffffffffffffffffffffffffffffffffffffff021916908373ffffffffffffffffffffffffffffffffffffffff1602179055505b6000610acd33610453565b90506000610add82600254611463565b9050610b28600760003373ffffffffffffffffffffffffffffffffffffffff1673ffffffffffffffffffffffffffffffffffffffff1681526020019081526020016000205482611410565b600760003373ffffffffffffffffffffffffffffffffffffffff1673ffffffffffffffffffffffffffffffffffffffff168152602001908152602001600020819055506000600860003373ffffffffffffffffffffffffffffffffffffffff1673ffffffffffffffffffffffffffffffffffffffff1681526020019081526020016000208190555042600960003373ffffffffffffffffffffffffffffffffffffffff1673ffffffffffffffffffffffffffffffffffffffff16815260200190815260200160002081905550610ca660086000600a60003373ffffffffffffffffffffffffffffffffffffffff1673ffffffffffffffffffffffffffffffffffffffff16815260200190815260200160002060009054906101000a900473ffffffffffffffffffffffffffffffffffffffff1673ffffffffffffffffffffffffffffffffffffffff1673ffffffffffffffffffffffffffffffffffffffff16815260200190815260200160002054610ca1846008611463565b611410565b60086000600a60003373ffffffffffffffffffffffffffffffffffffffff1673ffffffffffffffffffffffffffffffffffffffff16815260200190815260200160002060009054906101000a900473ffffffffffffffffffffffffffffffffffffffff1673ffffffffffffffffffffffffffffffffffffffff1673ffffffffffffffffffffffffffffffffffffffff16815260200190815260200160002081905550610d5e600b54610d59846005611463565b611410565b600b81905550505050565b600660009054906101000a900460ff16610d8257600080fd5b600160009054906101000a900473ffffffffffffffffffffffffffffffffffffffff1673ffffffffffffffffffffffffffffffffffffffff166323b872dd3330846040518463ffffffff1660e01b8152600401610de1939291906117dd565b6020604051808303816000875af1158015610e00573d6000803e3d6000fd5b505050506040513d601f19601f82011682018060405250810190610e24919061184c565b506000610ed582610ed0600160009054906101000a900473ffffffffffffffffffffffffffffffffffffffff1673ffffffffffffffffffffffffffffffffffffffff166370a08231306040518263ffffffff1660e01b8152600401610e899190611780565b602060405180830381865afa158015610ea6573d6000803e3d6000fd5b505050506040513d601f19601f82011682018060405250810190610eca91906117b0565b85611445565b61043c565b9050610ee981610ee483611426565b611445565b90506000610ef683611426565b9050600160009054906101000a900473ffffffffffffffffffffffffffffffffffffffff1673ffffffffffffffffffffffffffffffffffffffff166323b872dd33600660019054906101000a900473ffffffffffffffffffffffffffffffffffffffff16846040518463ffffffff1660e01b8152600401610f79939291906117dd565b6020604051808303816000875af1158015610f98573d6000803e3d6000fd5b505050506040513d601f19601f82011682018060405250810190610fbc919061184c565b50611006600860003373ffffffffffffffffffffffffffffffffffffffff1673ffffffffffffffffffffffffffffffffffffffff1681526020019081526020016000205483611410565b600860003373ffffffffffffffffffffffffffffffffffffffff1673ffffffffffffffffffffffffffffffffffffffff16815260200190815260200160002081905550611052846108c7565b50505050565b6000600760008373ffffffffffffffffffffffffffffffffffffffff1673ffffffffffffffffffffffffffffffffffffffff168152602001908152602001600020549050919050565b6110a961145b565b73ffffffffffffffffffffffffffffffffffffffff1660008054906101000a900473ffffffffffffffffffffffffffffffffffffffff1673ffffffffffffffffffffffffffffffffffffffff1614611136576040517f08c379a000000000000000000000000000000000000000000000000000000000815260040161112d906118ff565b60405180910390fd5b600073ffffffffffffffffffffffffffffffffffffffff1660008054906101000a900473ffffffffffffffffffffffffffffffffffffffff1673ffffffffffffffffffffffffffffffffffffffff167f8be0079c531659141344cd1fd0a4f28419497f9722a3daafe3b4186f6b6457e060405160405180910390a360008060006101000a81548173ffffffffffffffffffffffffffffffffffffffff021916908373ffffffffffffffffffffffffffffffffffffffff160217905550565b6000611200824761043c565b9050919050565b60008060009054906101000a900473ffffffffffffffffffffffffffffffffffffffff16905090565b600061124682600b54611241610399565b6113bd565b9050919050565b60008061125983610453565b9050600061126682611230565b90508092505050919050565b6000806112c96002546112c442600960008873ffffffffffffffffffffffffffffffffffffffff1673ffffffffffffffffffffffffffffffffffffffff16815260200190815260200160002054611445565b611479565b905061131481600760008673ffffffffffffffffffffffffffffffffffffffff1673ffffffffffffffffffffffffffffffffffffffff16815260200190815260200160002054611492565b915050919050565b61132461145b565b73ffffffffffffffffffffffffffffffffffffffff1660008054906101000a900473ffffffffffffffffffffffffffffffffffffffff1673ffffffffffffffffffffffffffffffffffffffff16146113b1576040517f08c379a00000000000000000000000000000000000000000000000000000000081526004016113a8906118ff565b60405180910390fd5b6113ba816114a8565b50565b60006114076113ce60035484611492565b6114026004546113fd6113f76113e66003548a611492565b6113f26004548c611492565b611410565b89611463565b611410565b611463565b90509392505050565b6000818361141e919061194e565b905092915050565b600061143e61143783600554611492565b6064611463565b9050919050565b6000818361145391906119a4565b905092915050565b600033905090565b600081836114719190611a07565b905092915050565b6000818310611488578161148a565b825b905092915050565b600081836114a09190611a38565b905092915050565b600073ffffffffffffffffffffffffffffffffffffffff168173ffffffffffffffffffffffffffffffffffffffff1603611517576040517f08c379a000000000000000000000000000000000000000000000000000000000815260040161150e90611b04565b60405180910390fd5b8073ffffffffffffffffffffffffffffffffffffffff1660008054906101000a900473ffffffffffffffffffffffffffffffffffffffff1673ffffffffffffffffffffffffffffffffffffffff167f8be0079c531659141344cd1fd0a4f28419497f9722a3daafe3b4186f6b6457e060405160405180910390a3806000806101000a81548173ffffffffffffffffffffffffffffffffffffffff021916908373ffffffffffffffffffffffffffffffffffffffff16021790555050565b6000819050919050565b6115e7816115d4565b82525050565b600060208201905061160260008301846115de565b92915050565b600080fd5b611616816115d4565b811461162157600080fd5b50565b6000813590506116338161160d565b92915050565b600080604083850312156116505761164f611608565b5b600061165e85828601611624565b925050602061166f85828601611624565b9150509250929050565b600073ffffffffffffffffffffffffffffffffffffffff82169050919050565b60006116a482611679565b9050919050565b6116b481611699565b81146116bf57600080fd5b50565b6000813590506116d1816116ab565b92915050565b6000602082840312156116ed576116ec611608565b5b60006116fb848285016116c2565b91505092915050565b60006020828403121561171a57611719611608565b5b600061172884828501611624565b91505092915050565b6000806040838503121561174857611747611608565b5b6000611756858286016116c2565b925050602061176785828601611624565b9150509250929050565b61177a81611699565b82525050565b60006020820190506117956000830184611771565b92915050565b6000815190506117aa8161160d565b92915050565b6000602082840312156117c6576117c5611608565b5b60006117d48482850161179b565b91505092915050565b60006060820190506117f26000830186611771565b6117ff6020830185611771565b61180c60408301846115de565b949350505050565b60008115159050919050565b61182981611814565b811461183457600080fd5b50565b60008151905061184681611820565b92915050565b60006020828403121561186257611861611608565b5b600061187084828501611837565b91505092915050565b600060408201905061188e6000830185611771565b61189b60208301846115de565b9392505050565b600082825260208201905092915050565b7f4f776e61626c653a2063616c6c6572206973206e6f7420746865206f776e6572600082015250565b60006118e96020836118a2565b91506118f4826118b3565b602082019050919050565b60006020820190508181036000830152611918816118dc565b9050919050565b7f4e487b7100000000000000000000000000000000000000000000000000000000600052601160045260246000fd5b6000611959826115d4565b9150611964836115d4565b9250827fffffffffffffffffffffffffffffffffffffffffffffffffffffffffffffffff038211156119995761199861191f565b5b828201905092915050565b60006119af826115d4565b91506119ba836115d4565b9250828210156119cd576119cc61191f565b5b828203905092915050565b7f4e487b7100000000000000000000000000000000000000000000000000000000600052601260045260246000fd5b6000611a12826115d4565b9150611a1d836115d4565b925082611a2d57611a2c6119d8565b5b828204905092915050565b6000611a43826115d4565b9150611a4e836115d4565b9250817fffffffffffffffffffffffffffffffffffffffffffffffffffffffffffffffff0483118215151615611a8757611a8661191f565b5b828202905092915050565b7f4f776e61626c653a206e6577206f776e657220697320746865207a65726f206160008201527f6464726573730000000000000000000000000000000000000000000000000000602082015250565b6000611aee6026836118a2565b9150611af982611a92565b604082019050919050565b60006020820190508181036000830152611b1d81611ae1565b905091905056fea26469706673582212208797c2c850a8e4c9fc8dfdc4d96a4913dec092aa6d179235f722c4ce891cc04f64736f6c634300080f0033",
  "linkReferences": {},
  "deployedLinkReferences": {}
}